{
    "contractName": "Voting",
    "abi": [
        {
            "inputs": [
                {
                    "internalType": "uint256",
                    "name": "",
                    "type": "uint256"
                }
            ],
            "name": "candidateIds",
            "outputs": [
                {
                    "internalType": "uint256",
                    "name": "",
                    "type": "uint256"
                }
            ],
            "stateMutability": "view",
            "type": "function"
        },
        {
            "inputs": [
                {
                    "internalType": "uint256",
                    "name": "",
                    "type": "uint256"
                }
            ],
            "name": "candidates",
            "outputs": [
                {
                    "internalType": "uint256",
                    "name": "id",
                    "type": "uint256"
                },
                {
                    "internalType": "uint256",
                    "name": "voteCount",
                    "type": "uint256"
                }
            ],
            "stateMutability": "view",
            "type": "function"
        },
        {
            "inputs": [
                {
                    "internalType": "uint256",
                    "name": "_id",
                    "type": "uint256"
                }
            ],
            "name": "getVotes",
            "outputs": [
                {
                    "internalType": "uint256",
                    "name": "",
                    "type": "uint256"
                }
            ],
            "stateMutability": "view",
            "type": "function"
        },
        {
            "inputs": [],
            "name": "resetVotes",
            "outputs": [],
            "stateMutability": "nonpayable",
            "type": "function"
        },
        {
            "inputs": [
                {
                    "internalType": "uint256",
                    "name": "_id",
                    "type": "uint256"
                }
            ],
            "name": "vote",
            "outputs": [],
            "stateMutability": "nonpayable",
            "type": "function"
        }
    ],
    "bytecode": "608080604052346015576102aa908161001a8239f35b5f80fdfe60806040526004361015610011575f80fd5b5f3560e01c80630121b93f1461013a57806303016130146101025780633477ee2e146100d0578063b9830ff11461008b5763ff98109914610050575f80fd5b346100875760203660031901126100875760043561006f811515610182565b5f525f6020526020600160405f200154604051908152f35b5f80fd5b34610087575f366003190112610087575f5b6001548110156100ce57806100b3600192610156565b90549060031b1c5f525f6020525f826040822001550161009d565b005b34610087576020366003190112610087576004355f525f6020526040805f206001815491015482519182526020820152f35b34610087576020366003190112610087576004356001548110156100875761012b602091610156565b90549060031b1c604051908152f35b34610087576020366003190112610087576100ce6004356101bb565b60015481101561016e5760015f5260205f2001905f90565b634e487b7160e01b5f52603260045260245ffd5b1561018957565b60405162461bcd60e51b815260206004820152600a6024820152691a5b9d985b1a59081a5960b21b6044820152606490fd5b6101c6811515610182565b805f525f602052600160405f200180545f1981146102605760010190555f600154905b81811061023d575068010000000000000000811015610229578060016102129201600155610156565b819291549060031b91821b915f19901b1916179055565b634e487b7160e01b5f52604160045260245ffd5b8261024782610156565b90549060031b1c1461025b576001016101e9565b505050565b634e487b7160e01b5f52601160045260245ffdfea2646970667358221220bfb0c8c243d748cb6fc2c9e80f3bb0a4137a1c69b24ee7a394b9eff118fbe69164736f6c634300081e0033",
    "sourcePath": "/Users/zhangxiaokun/workBase/solidity/task1/voting/voting.sol",
    "compiler": {
        "name": "solc",
        "version": "0.8.30+commit.73712a01"
    },
    "functionHashes": {
        "candidateIds(uint256)": "03016130",
        "candidates(uint256)": "3477ee2e",
        "getVotes(uint256)": "ff981099",
        "resetVotes()": "b9830ff1",
        "vote(uint256)": "0121b93f"
    },
    "gasEstimates": {
        "creation": {
            "codeDepositCost": "136400",
            "executionCost": "190",
            "totalCost": "136590"
        },
        "external": {
            "candidateIds(uint256)": "6626",
            "candidates(uint256)": "4483",
            "getVotes(uint256)": "2452",
            "resetVotes()": "infinite",
            "vote(uint256)": "75241"
        }
    }
}